{
  "_format": "hh-sol-artifact-1",
  "contractName": "LandAuction",
  "sourceName": "contracts/LandAuction.sol",
  "abi": [
    {
      "inputs": [
        {
          "internalType": "address",
          "name": "",
          "type": "address"
        },
        {
          "internalType": "uint256",
          "name": "",
          "type": "uint256"
        }
      ],
      "name": "auctions",
      "outputs": [
        {
          "internalType": "address",
          "name": "seller",
          "type": "address"
        },
        {
          "internalType": "uint256",
          "name": "minBid",
          "type": "uint256"
        },
        {
          "internalType": "uint256",
          "name": "highestBid",
          "type": "uint256"
        },
        {
          "internalType": "address",
          "name": "highestBidder",
          "type": "address"
        },
        {
          "internalType": "uint256",
          "name": "endTime",
          "type": "uint256"
        },
        {
          "internalType": "bool",
          "name": "ended",
          "type": "bool"
        }
      ],
      "stateMutability": "view",
      "type": "function"
    },
    {
      "inputs": [
        {
          "internalType": "address",
          "name": "_nft",
          "type": "address"
        },
        {
          "internalType": "uint256",
          "name": "_tokenId",
          "type": "uint256"
        }
      ],
      "name": "bid",
      "outputs": [],
      "stateMutability": "payable",
      "type": "function"
    },
    {
      "inputs": [
        {
          "internalType": "address",
          "name": "_nft",
          "type": "address"
        },
        {
          "internalType": "uint256",
          "name": "_tokenId",
          "type": "uint256"
        },
        {
          "internalType": "uint256",
          "name": "_minBid",
          "type": "uint256"
        },
        {
          "internalType": "uint256",
          "name": "_duration",
          "type": "uint256"
        }
      ],
      "name": "createAuction",
      "outputs": [],
      "stateMutability": "nonpayable",
      "type": "function"
    },
    {
      "inputs": [
        {
          "internalType": "address",
          "name": "_nft",
          "type": "address"
        },
        {
          "internalType": "uint256",
          "name": "_tokenId",
          "type": "uint256"
        }
      ],
      "name": "endAuction",
      "outputs": [],
      "stateMutability": "nonpayable",
      "type": "function"
    },
    {
      "inputs": [
        {
          "internalType": "address",
          "name": "_nft",
          "type": "address"
        },
        {
          "internalType": "uint256",
          "name": "index",
          "type": "uint256"
        }
      ],
      "name": "getAuctionByIndex",
      "outputs": [
        {
          "internalType": "uint256",
          "name": "tokenId",
          "type": "uint256"
        },
        {
          "internalType": "address",
          "name": "seller",
          "type": "address"
        },
        {
          "internalType": "uint256",
          "name": "minBid",
          "type": "uint256"
        },
        {
          "internalType": "uint256",
          "name": "highestBid",
          "type": "uint256"
        },
        {
          "internalType": "address",
          "name": "highestBidder",
          "type": "address"
        },
        {
          "internalType": "uint256",
          "name": "endTime",
          "type": "uint256"
        },
        {
          "internalType": "bool",
          "name": "ended",
          "type": "bool"
        }
      ],
      "stateMutability": "view",
      "type": "function"
    },
    {
      "inputs": [
        {
          "internalType": "address",
          "name": "_nft",
          "type": "address"
        }
      ],
      "name": "getAuctionCount",
      "outputs": [
        {
          "internalType": "uint256",
          "name": "",
          "type": "uint256"
        }
      ],
      "stateMutability": "view",
      "type": "function"
    }
  ],
  "bytecode": "0x608060405234801561001057600080fd5b506112ad806100206000396000f3fe6080604052600436106100555760003560e01c8063116a73521461005a57806344f91c1e1461009757806359d667a5146100d957806361beb1d7146100f55780638800b4d41461011e57806388cedbc414610161575b600080fd5b34801561006657600080fd5b50610081600480360381019061007c9190610ce7565b61018a565b60405161008e9190610d2d565b60405180910390f35b3480156100a357600080fd5b506100be60048036038101906100b99190610d74565b6101d6565b6040516100d096959493929190610dde565b60405180910390f35b6100f360048036038101906100ee9190610d74565b61026c565b005b34801561010157600080fd5b5061011c60048036038101906101179190610e3f565b610474565b005b34801561012a57600080fd5b5061014560048036038101906101409190610d74565b610719565b6040516101589796959493929190610ea6565b60405180910390f35b34801561016d57600080fd5b5061018860048036038101906101839190610d74565b610983565b005b6000600160008373ffffffffffffffffffffffffffffffffffffffff1673ffffffffffffffffffffffffffffffffffffffff168152602001908152602001600020805490509050919050565b6000602052816000526040600020602052806000526040600020600091509150508060000160009054906101000a900473ffffffffffffffffffffffffffffffffffffffff16908060010154908060020154908060030160009054906101000a900473ffffffffffffffffffffffffffffffffffffffff16908060040154908060050160009054906101000a900460ff16905086565b60008060008473ffffffffffffffffffffffffffffffffffffffff1673ffffffffffffffffffffffffffffffffffffffff1681526020019081526020016000206000838152602001908152602001600020905080600401544210610305576040517f08c379a00000000000000000000000000000000000000000000000000000000081526004016102fc90610f72565b60405180910390fd5b80600201543411801561031c575080600101543410155b61035b576040517f08c379a000000000000000000000000000000000000000000000000000000000815260040161035290610fde565b60405180910390fd5b600073ffffffffffffffffffffffffffffffffffffffff168160030160009054906101000a900473ffffffffffffffffffffffffffffffffffffffff1673ffffffffffffffffffffffffffffffffffffffff1614610423578060030160009054906101000a900473ffffffffffffffffffffffffffffffffffffffff1673ffffffffffffffffffffffffffffffffffffffff166108fc82600201549081150290604051600060405180830381858888f19350505050158015610421573d6000803e3d6000fd5b505b348160020181905550338160030160006101000a81548173ffffffffffffffffffffffffffffffffffffffff021916908373ffffffffffffffffffffffffffffffffffffffff160217905550505050565b600081116104b7576040517f08c379a00000000000000000000000000000000000000000000000000000000081526004016104ae9061104a565b60405180910390fd5b8373ffffffffffffffffffffffffffffffffffffffff166323b872dd3330866040518463ffffffff1660e01b81526004016104f49392919061106a565b600060405180830381600087803b15801561050e57600080fd5b505af1158015610522573d6000803e3d6000fd5b505050506040518060c001604052803373ffffffffffffffffffffffffffffffffffffffff16815260200183815260200160008152602001600073ffffffffffffffffffffffffffffffffffffffff168152602001824261058391906110d0565b8152602001600015158152506000808673ffffffffffffffffffffffffffffffffffffffff1673ffffffffffffffffffffffffffffffffffffffff168152602001908152602001600020600085815260200190815260200160002060008201518160000160006101000a81548173ffffffffffffffffffffffffffffffffffffffff021916908373ffffffffffffffffffffffffffffffffffffffff160217905550602082015181600101556040820151816002015560608201518160030160006101000a81548173ffffffffffffffffffffffffffffffffffffffff021916908373ffffffffffffffffffffffffffffffffffffffff1602179055506080820151816004015560a08201518160050160006101000a81548160ff021916908315150217905550905050600160008573ffffffffffffffffffffffffffffffffffffffff1673ffffffffffffffffffffffffffffffffffffffff16815260200190815260200160002083908060018154018082558091505060019003906000526020600020016000909190919091505550505050565b6000806000806000806000600160008a73ffffffffffffffffffffffffffffffffffffffff1673ffffffffffffffffffffffffffffffffffffffff1681526020019081526020016000208054905088106107a8576040517f08c379a000000000000000000000000000000000000000000000000000000000815260040161079f90611150565b60405180910390fd5b600160008a73ffffffffffffffffffffffffffffffffffffffff1673ffffffffffffffffffffffffffffffffffffffff16815260200190815260200160002088815481106107f9576107f8611170565b5b9060005260206000200154965060008060008b73ffffffffffffffffffffffffffffffffffffffff1673ffffffffffffffffffffffffffffffffffffffff16815260200190815260200160002060008981526020019081526020016000206040518060c00160405290816000820160009054906101000a900473ffffffffffffffffffffffffffffffffffffffff1673ffffffffffffffffffffffffffffffffffffffff1673ffffffffffffffffffffffffffffffffffffffff16815260200160018201548152602001600282015481526020016003820160009054906101000a900473ffffffffffffffffffffffffffffffffffffffff1673ffffffffffffffffffffffffffffffffffffffff1673ffffffffffffffffffffffffffffffffffffffff168152602001600482015481526020016005820160009054906101000a900460ff161515151581525050905087816000015182602001518360400151846060015185608001518660a0015197509750975097509750975097505092959891949750929550565b60008060008473ffffffffffffffffffffffffffffffffffffffff1673ffffffffffffffffffffffffffffffffffffffff168152602001908152602001600020600083815260200190815260200160002090508060040154421015610a1d576040517f08c379a0000000000000000000000000000000000000000000000000000000008152600401610a14906111eb565b60405180910390fd5b8060050160009054906101000a900460ff1615610a6f576040517f08c379a0000000000000000000000000000000000000000000000000000000008152600401610a6690611257565b60405180910390fd5b60018160050160006101000a81548160ff021916908315150217905550600073ffffffffffffffffffffffffffffffffffffffff168160030160009054906101000a900473ffffffffffffffffffffffffffffffffffffffff1673ffffffffffffffffffffffffffffffffffffffff1614610beb578273ffffffffffffffffffffffffffffffffffffffff166323b872dd308360030160009054906101000a900473ffffffffffffffffffffffffffffffffffffffff16856040518463ffffffff1660e01b8152600401610b459392919061106a565b600060405180830381600087803b158015610b5f57600080fd5b505af1158015610b73573d6000803e3d6000fd5b505050508060000160009054906101000a900473ffffffffffffffffffffffffffffffffffffffff1673ffffffffffffffffffffffffffffffffffffffff166108fc82600201549081150290604051600060405180830381858888f19350505050158015610be5573d6000803e3d6000fd5b50610c7f565b8273ffffffffffffffffffffffffffffffffffffffff166323b872dd308360000160009054906101000a900473ffffffffffffffffffffffffffffffffffffffff16856040518463ffffffff1660e01b8152600401610c4c9392919061106a565b600060405180830381600087803b158015610c6657600080fd5b505af1158015610c7a573d6000803e3d6000fd5b505050505b505050565b600080fd5b600073ffffffffffffffffffffffffffffffffffffffff82169050919050565b6000610cb482610c89565b9050919050565b610cc481610ca9565b8114610ccf57600080fd5b50565b600081359050610ce181610cbb565b92915050565b600060208284031215610cfd57610cfc610c84565b5b6000610d0b84828501610cd2565b91505092915050565b6000819050919050565b610d2781610d14565b82525050565b6000602082019050610d426000830184610d1e565b92915050565b610d5181610d14565b8114610d5c57600080fd5b50565b600081359050610d6e81610d48565b92915050565b60008060408385031215610d8b57610d8a610c84565b5b6000610d9985828601610cd2565b9250506020610daa85828601610d5f565b9150509250929050565b610dbd81610ca9565b82525050565b60008115159050919050565b610dd881610dc3565b82525050565b600060c082019050610df36000830189610db4565b610e006020830188610d1e565b610e0d6040830187610d1e565b610e1a6060830186610db4565b610e276080830185610d1e565b610e3460a0830184610dcf565b979650505050505050565b60008060008060808587031215610e5957610e58610c84565b5b6000610e6787828801610cd2565b9450506020610e7887828801610d5f565b9350506040610e8987828801610d5f565b9250506060610e9a87828801610d5f565b91505092959194509250565b600060e082019050610ebb600083018a610d1e565b610ec86020830189610db4565b610ed56040830188610d1e565b610ee26060830187610d1e565b610eef6080830186610db4565b610efc60a0830185610d1e565b610f0960c0830184610dcf565b98975050505050505050565b600082825260208201905092915050565b7f41756374696f6e20656e64656400000000000000000000000000000000000000600082015250565b6000610f5c600d83610f15565b9150610f6782610f26565b602082019050919050565b60006020820190508181036000830152610f8b81610f4f565b9050919050565b7f42696420746f6f206c6f77000000000000000000000000000000000000000000600082015250565b6000610fc8600b83610f15565b9150610fd382610f92565b602082019050919050565b60006020820190508181036000830152610ff781610fbb565b9050919050565b7f4475726174696f6e206d75737420626520706f73697469766500000000000000600082015250565b6000611034601983610f15565b915061103f82610ffe565b602082019050919050565b6000602082019050818103600083015261106381611027565b9050919050565b600060608201905061107f6000830186610db4565b61108c6020830185610db4565b6110996040830184610d1e565b949350505050565b7f4e487b7100000000000000000000000000000000000000000000000000000000600052601160045260246000fd5b60006110db82610d14565b91506110e683610d14565b92508282019050808211156110fe576110fd6110a1565b5b92915050565b7f496e646578206f7574206f6620626f756e647300000000000000000000000000600082015250565b600061113a601383610f15565b915061114582611104565b602082019050919050565b600060208201905081810360008301526111698161112d565b9050919050565b7f4e487b7100000000000000000000000000000000000000000000000000000000600052603260045260246000fd5b7f41756374696f6e206e6f7420656e646564000000000000000000000000000000600082015250565b60006111d5601183610f15565b91506111e08261119f565b602082019050919050565b60006020820190508181036000830152611204816111c8565b9050919050565b7f41756374696f6e20616c726561647920656e6465640000000000000000000000600082015250565b6000611241601583610f15565b915061124c8261120b565b602082019050919050565b6000602082019050818103600083015261127081611234565b905091905056fea26469706673582212208c9d00cbfd114e2360d79e255543040e95361fa954c304152661c47642e3567b64736f6c63430008140033",
  "linkReferences": {},
  "deployedLinkReferences": {}
}