{
  "_format": "hh-sol-artifact-1",
  "contractName": "LandAuction",
  "sourceName": "contracts/LandAuction.sol",
  "abi": [
    {
      "inputs": [
        {
          "internalType": "address",
          "name": "",
          "type": "address"
        },
        {
          "internalType": "uint256",
          "name": "",
          "type": "uint256"
        }
      ],
      "name": "auctions",
      "outputs": [
        {
          "internalType": "address",
          "name": "seller",
          "type": "address"
        },
        {
          "internalType": "uint256",
          "name": "minBid",
          "type": "uint256"
        },
        {
          "internalType": "uint256",
          "name": "highestBid",
          "type": "uint256"
        },
        {
          "internalType": "address",
          "name": "highestBidder",
          "type": "address"
        },
        {
          "internalType": "uint256",
          "name": "endTime",
          "type": "uint256"
        },
        {
          "internalType": "bool",
          "name": "ended",
          "type": "bool"
        }
      ],
      "stateMutability": "view",
      "type": "function"
    },
    {
      "inputs": [
        {
          "internalType": "address",
          "name": "_nft",
          "type": "address"
        },
        {
          "internalType": "uint256",
          "name": "_tokenId",
          "type": "uint256"
        }
      ],
      "name": "bid",
      "outputs": [],
      "stateMutability": "payable",
      "type": "function"
    },
    {
      "inputs": [
        {
          "internalType": "address",
          "name": "_nft",
          "type": "address"
        },
        {
          "internalType": "uint256",
          "name": "_tokenId",
          "type": "uint256"
        },
        {
          "internalType": "uint256",
          "name": "_minBid",
          "type": "uint256"
        },
        {
          "internalType": "uint256",
          "name": "_duration",
          "type": "uint256"
        }
      ],
      "name": "createAuction",
      "outputs": [],
      "stateMutability": "nonpayable",
      "type": "function"
    },
    {
      "inputs": [
        {
          "internalType": "address",
          "name": "_nft",
          "type": "address"
        },
        {
          "internalType": "uint256",
          "name": "_tokenId",
          "type": "uint256"
        }
      ],
      "name": "endAuction",
      "outputs": [],
      "stateMutability": "nonpayable",
      "type": "function"
    },
    {
      "inputs": [
        {
          "internalType": "address",
          "name": "_nft",
          "type": "address"
        },
        {
          "internalType": "uint256",
          "name": "index",
          "type": "uint256"
        }
      ],
      "name": "getAuctionByIndex",
      "outputs": [
        {
          "internalType": "uint256",
          "name": "tokenId",
          "type": "uint256"
        },
        {
          "internalType": "address",
          "name": "seller",
          "type": "address"
        },
        {
          "internalType": "uint256",
          "name": "minBid",
          "type": "uint256"
        },
        {
          "internalType": "uint256",
          "name": "highestBid",
          "type": "uint256"
        },
        {
          "internalType": "address",
          "name": "highestBidder",
          "type": "address"
        },
        {
          "internalType": "uint256",
          "name": "endTime",
          "type": "uint256"
        },
        {
          "internalType": "bool",
          "name": "ended",
          "type": "bool"
        }
      ],
      "stateMutability": "view",
      "type": "function"
    },
    {
      "inputs": [
        {
          "internalType": "address",
          "name": "_nft",
          "type": "address"
        }
      ],
      "name": "getAuctionCount",
      "outputs": [
        {
          "internalType": "uint256",
          "name": "",
          "type": "uint256"
        }
      ],
      "stateMutability": "view",
      "type": "function"
    }
  ],
  "bytecode": "0x608060405234801561001057600080fd5b506112f8806100206000396000f3fe6080604052600436106100555760003560e01c8063116a73521461005a57806344f91c1e1461009757806359d667a5146100d957806361beb1d7146100f55780638800b4d41461011e57806388cedbc414610161575b600080fd5b34801561006657600080fd5b50610081600480360381019061007c9190610d32565b61018a565b60405161008e9190610d78565b60405180910390f35b3480156100a357600080fd5b506100be60048036038101906100b99190610dbf565b6101d6565b6040516100d096959493929190610e29565b60405180910390f35b6100f360048036038101906100ee9190610dbf565b61026c565b005b34801561010157600080fd5b5061011c60048036038101906101179190610e8a565b610474565b005b34801561012a57600080fd5b5061014560048036038101906101409190610dbf565b610719565b6040516101589796959493929190610ef1565b60405180910390f35b34801561016d57600080fd5b5061018860048036038101906101839190610dbf565b610983565b005b6000600160008373ffffffffffffffffffffffffffffffffffffffff1673ffffffffffffffffffffffffffffffffffffffff168152602001908152602001600020805490509050919050565b6000602052816000526040600020602052806000526040600020600091509150508060000160009054906101000a900473ffffffffffffffffffffffffffffffffffffffff16908060010154908060020154908060030160009054906101000a900473ffffffffffffffffffffffffffffffffffffffff16908060040154908060050160009054906101000a900460ff16905086565b60008060008473ffffffffffffffffffffffffffffffffffffffff1673ffffffffffffffffffffffffffffffffffffffff1681526020019081526020016000206000838152602001908152602001600020905080600401544210610305576040517f08c379a00000000000000000000000000000000000000000000000000000000081526004016102fc90610fbd565b60405180910390fd5b80600201543411801561031c575080600101543410155b61035b576040517f08c379a000000000000000000000000000000000000000000000000000000000815260040161035290611029565b60405180910390fd5b600073ffffffffffffffffffffffffffffffffffffffff168160030160009054906101000a900473ffffffffffffffffffffffffffffffffffffffff1673ffffffffffffffffffffffffffffffffffffffff1614610423578060030160009054906101000a900473ffffffffffffffffffffffffffffffffffffffff1673ffffffffffffffffffffffffffffffffffffffff166108fc82600201549081150290604051600060405180830381858888f19350505050158015610421573d6000803e3d6000fd5b505b348160020181905550338160030160006101000a81548173ffffffffffffffffffffffffffffffffffffffff021916908373ffffffffffffffffffffffffffffffffffffffff160217905550505050565b600081116104b7576040517f08c379a00000000000000000000000000000000000000000000000000000000081526004016104ae90611095565b60405180910390fd5b8373ffffffffffffffffffffffffffffffffffffffff166323b872dd3330866040518463ffffffff1660e01b81526004016104f4939291906110b5565b600060405180830381600087803b15801561050e57600080fd5b505af1158015610522573d6000803e3d6000fd5b505050506040518060c001604052803373ffffffffffffffffffffffffffffffffffffffff16815260200183815260200160008152602001600073ffffffffffffffffffffffffffffffffffffffff1681526020018242610583919061111b565b8152602001600015158152506000808673ffffffffffffffffffffffffffffffffffffffff1673ffffffffffffffffffffffffffffffffffffffff168152602001908152602001600020600085815260200190815260200160002060008201518160000160006101000a81548173ffffffffffffffffffffffffffffffffffffffff021916908373ffffffffffffffffffffffffffffffffffffffff160217905550602082015181600101556040820151816002015560608201518160030160006101000a81548173ffffffffffffffffffffffffffffffffffffffff021916908373ffffffffffffffffffffffffffffffffffffffff1602179055506080820151816004015560a08201518160050160006101000a81548160ff021916908315150217905550905050600160008573ffffffffffffffffffffffffffffffffffffffff1673ffffffffffffffffffffffffffffffffffffffff16815260200190815260200160002083908060018154018082558091505060019003906000526020600020016000909190919091505550505050565b6000806000806000806000600160008a73ffffffffffffffffffffffffffffffffffffffff1673ffffffffffffffffffffffffffffffffffffffff1681526020019081526020016000208054905088106107a8576040517f08c379a000000000000000000000000000000000000000000000000000000000815260040161079f9061119b565b60405180910390fd5b600160008a73ffffffffffffffffffffffffffffffffffffffff1673ffffffffffffffffffffffffffffffffffffffff16815260200190815260200160002088815481106107f9576107f86111bb565b5b9060005260206000200154965060008060008b73ffffffffffffffffffffffffffffffffffffffff1673ffffffffffffffffffffffffffffffffffffffff16815260200190815260200160002060008981526020019081526020016000206040518060c00160405290816000820160009054906101000a900473ffffffffffffffffffffffffffffffffffffffff1673ffffffffffffffffffffffffffffffffffffffff1673ffffffffffffffffffffffffffffffffffffffff16815260200160018201548152602001600282015481526020016003820160009054906101000a900473ffffffffffffffffffffffffffffffffffffffff1673ffffffffffffffffffffffffffffffffffffffff1673ffffffffffffffffffffffffffffffffffffffff168152602001600482015481526020016005820160009054906101000a900460ff161515151581525050905087816000015182602001518360400151846060015185608001518660a0015197509750975097509750975097505092959891949750929550565b60008060008473ffffffffffffffffffffffffffffffffffffffff1673ffffffffffffffffffffffffffffffffffffffff168152602001908152602001600020600083815260200190815260200160002090508060050160009054906101000a900460ff1615610a28576040517f08c379a0000000000000000000000000000000000000000000000000000000008152600401610a1f90611236565b60405180910390fd5b8060000160009054906101000a900473ffffffffffffffffffffffffffffffffffffffff1673ffffffffffffffffffffffffffffffffffffffff163373ffffffffffffffffffffffffffffffffffffffff1614610aba576040517f08c379a0000000000000000000000000000000000000000000000000000000008152600401610ab1906112a2565b60405180910390fd5b60018160050160006101000a81548160ff021916908315150217905550600073ffffffffffffffffffffffffffffffffffffffff168160030160009054906101000a900473ffffffffffffffffffffffffffffffffffffffff1673ffffffffffffffffffffffffffffffffffffffff1614610c36578273ffffffffffffffffffffffffffffffffffffffff166323b872dd308360030160009054906101000a900473ffffffffffffffffffffffffffffffffffffffff16856040518463ffffffff1660e01b8152600401610b90939291906110b5565b600060405180830381600087803b158015610baa57600080fd5b505af1158015610bbe573d6000803e3d6000fd5b505050508060000160009054906101000a900473ffffffffffffffffffffffffffffffffffffffff1673ffffffffffffffffffffffffffffffffffffffff166108fc82600201549081150290604051600060405180830381858888f19350505050158015610c30573d6000803e3d6000fd5b50610cca565b8273ffffffffffffffffffffffffffffffffffffffff166323b872dd308360000160009054906101000a900473ffffffffffffffffffffffffffffffffffffffff16856040518463ffffffff1660e01b8152600401610c97939291906110b5565b600060405180830381600087803b158015610cb157600080fd5b505af1158015610cc5573d6000803e3d6000fd5b505050505b505050565b600080fd5b600073ffffffffffffffffffffffffffffffffffffffff82169050919050565b6000610cff82610cd4565b9050919050565b610d0f81610cf4565b8114610d1a57600080fd5b50565b600081359050610d2c81610d06565b92915050565b600060208284031215610d4857610d47610ccf565b5b6000610d5684828501610d1d565b91505092915050565b6000819050919050565b610d7281610d5f565b82525050565b6000602082019050610d8d6000830184610d69565b92915050565b610d9c81610d5f565b8114610da757600080fd5b50565b600081359050610db981610d93565b92915050565b60008060408385031215610dd657610dd5610ccf565b5b6000610de485828601610d1d565b9250506020610df585828601610daa565b9150509250929050565b610e0881610cf4565b82525050565b60008115159050919050565b610e2381610e0e565b82525050565b600060c082019050610e3e6000830189610dff565b610e4b6020830188610d69565b610e586040830187610d69565b610e656060830186610dff565b610e726080830185610d69565b610e7f60a0830184610e1a565b979650505050505050565b60008060008060808587031215610ea457610ea3610ccf565b5b6000610eb287828801610d1d565b9450506020610ec387828801610daa565b9350506040610ed487828801610daa565b9250506060610ee587828801610daa565b91505092959194509250565b600060e082019050610f06600083018a610d69565b610f136020830189610dff565b610f206040830188610d69565b610f2d6060830187610d69565b610f3a6080830186610dff565b610f4760a0830185610d69565b610f5460c0830184610e1a565b98975050505050505050565b600082825260208201905092915050565b7f41756374696f6e20656e64656400000000000000000000000000000000000000600082015250565b6000610fa7600d83610f60565b9150610fb282610f71565b602082019050919050565b60006020820190508181036000830152610fd681610f9a565b9050919050565b7f42696420746f6f206c6f77000000000000000000000000000000000000000000600082015250565b6000611013600b83610f60565b915061101e82610fdd565b602082019050919050565b6000602082019050818103600083015261104281611006565b9050919050565b7f4475726174696f6e206d75737420626520706f73697469766500000000000000600082015250565b600061107f601983610f60565b915061108a82611049565b602082019050919050565b600060208201905081810360008301526110ae81611072565b9050919050565b60006060820190506110ca6000830186610dff565b6110d76020830185610dff565b6110e46040830184610d69565b949350505050565b7f4e487b7100000000000000000000000000000000000000000000000000000000600052601160045260246000fd5b600061112682610d5f565b915061113183610d5f565b9250828201905080821115611149576111486110ec565b5b92915050565b7f496e646578206f7574206f6620626f756e647300000000000000000000000000600082015250565b6000611185601383610f60565b91506111908261114f565b602082019050919050565b600060208201905081810360008301526111b481611178565b9050919050565b7f4e487b7100000000000000000000000000000000000000000000000000000000600052603260045260246000fd5b7f41756374696f6e20616c726561647920656e6465640000000000000000000000600082015250565b6000611220601583610f60565b915061122b826111ea565b602082019050919050565b6000602082019050818103600083015261124f81611213565b9050919050565b7f4f6e6c792073656c6c65722063616e20656e6400000000000000000000000000600082015250565b600061128c601383610f60565b915061129782611256565b602082019050919050565b600060208201905081810360008301526112bb8161127f565b905091905056fea26469706673582212201a2cd25faab6371b1e0d1a6f60d4f7a6678290cb5a9bc1b3e40daa892cf948da64736f6c63430008140033",
  "linkReferences": {},
  "deployedLinkReferences": {}
}